:020000040000FA
:06000000020A2E0201AE0F
:03002B00021DD6DD
:0300330002068042
:030043000208AC04
:03004B0002074A5F
:03005300020101A6
:03005B0002075940
:030063000207652C
:03006B0002066624
:1000830002014A0101FF01010503010F10FEFF03F5
:100093000003000300030003000300030003000345
:1000A3000005000A00140028004F009E000000090C
:1000B30013091309130913C511BF110913F31F0002
:1000C300000000911F000000000C0000000C000164
:1000D300D604FF0102003E11000000B111640002CA
:1000E30002000800000502071E02051E020A03B8EB
:1000F3000B02803E0103320002F1FF020206C0E060
:1001030074F21203C0E5A7F8E5A1F958541060088A
:100113001219CF53A1EF802AE8A2E0C0D0E9A2E0F0
:1001230092F0120955158182F05017906198E0F80A
:100133009014B7E0C398A2D265D0335002E8F053CD
:10014300A1FE7F0102041FC0E074F21203C090619C
:10015300A4E0F8759B00E59158540860087591F781
:10016300121A11802AE59158541060087591EF1204
:100173001A17801BE8A2E0C0D0E591A2E092F0122A
:100183000955158182F05007E0C2E0F0121B379049
:1001930061A3E0F8E5E9585404600E121B0D75E9FC
:1001A300FB906193E0A2E640F28097C0E074F21204
:1001B30003C09061A5E0F8E5BF585404600653BF3F
:1001C300FB121B4F020145C3E498F8E499F91202AC
:1001D3000B8026C3E49AFAE49BFBE920E7E91202C9
:1001E3000BE498F8E499F922C3E498F8E499F91236
:1001F300020BE498F8E499F9C3E49AFAE49BFB222E
:10020300EB20E7CFE920E7E0B90010BB0008E88A5C
:10021300F084F8AAF022E4FBC8FA22EB70227B10E8
:10022300C833C8C933C9335007C39AC3DBF2800646
:100233009A50012ADBEAC833F4C8C933F4C9FA2255
:1002430075F008E4C833C8C933C933C99AC99B5088
:1002530004C92AC93BD5F0ECFBC833F4C8E4C9FA96
:1002630022080808EAC0E0EBC0E086F0E7A4FA1829
:100273000986F0E7A42AFA180986F0E7A42AFA18EF
:100283000986F0E7A42AFA1986F0E7A4FBE5F02A29
:10029300FA190886F0E7A42BFBE5F03AFA19088669
:1002A300F0E7A42BFBE5F03AFA18180986F0E7A467
:1002B300C5F02BFBE43AFA1908E7C5F0C6A426F605
:1002C300E5F03BFBE43AFA1886F0E7A4F6E5F0081C
:1002D30026F6E43B08F6E43A08F6D0E0FBD0E0FA71
:1002E30022E4CFC0E0E4CEC0E0E4CDC0E0E4CCC083
:1002F300E075F020C3E633F608E633F608E633F696
:1003030008E633F6181818EC33FCED33FDEE33FE34
:10031300EF33FFC3EC9709ED9709EE9709EF9719B0
:100323001919400FFFEC97FC09ED97FD09EE97FEB5
:10033300191906D5F0BEECF709EDF709EEF709EF49
:10034300F7191919D0E0FCD0E0FDD0E0FED0E0FFB2
:10035300222518C582C0E0E51934FFC583C0E0E556
:1003630018C3958224F810AF0885831985821880F5
:1003730008858319858218D2AFCEF0A3E520F0A3B8
:100383007808E608F0A3DEFAEFF0A3E58124FAF893
:10039300E608F0A3E608F0A3E608F0A30808E608D9
:1003A300F0A3E608F0A315811581D0E0FED0E0F8B4
:1003B300158115811581E8C0E0EEC0E022C0D0258B
:1003C30018C582C0E0E51934FFC583C0E0E518C352
:1003D300958224F310AF08858319858218800885D8
:1003E3008319858218D2AFC8F0A3E9F0A3EAF0A37A
:1003F300EBF0A37908E709F0A3D8FAECF0A3EDF04A
:10040300A3EEF0A3EFF0A3D0E0F0A3D0E0F0A3D0ED
:10041300E0F0A3E520F0A3E5F0F0A322851983859E
:100423001882E0C0E0A3E0F9A3E0FAA3E0FBA3781D
:1004330008E0F608A3DFFAE0FCA3E0FDA3E0FEA3D7
:10044300E0FFA3E0C0E0A3E0C0E0A3E0F5D0A3E0B9
:10045300F520A3E0A3F5F010AF0885831985821872
:100463008008858319858218D2AFD082D083D0E0EB
:10047300F8D0E032120A90B900030204B9E4900301
:1004830001783879188002F0A3D8FCD9FA901A3889
:10049300AA82AB83900086787C79018015E493A3CC
:1004A300AC82AD838A828B83F0A3AA82AB838C82D6
:1004B3008D83D8E9D9E77582E075839B74031205B0
:1004C3001B7582D175831D740012051BD083D082E6
:1004D300ECC0E0EDC0E0E493A3FCE493A3FDED4C9A
:1004E300600D1205F1EC24FFFCED34FFFD80EFE419
:1004F30093A3FCE493A3FDED4C600D1206F5EC24ED
:10050300FFFCED34FFFD80EFD0E0FDD0E0FCE49391
:10051300A3C0E0E493C0E022C0F0F5F0E59F5407E8
:10052300C0E0E59F54F845F0D0F0F59FE473859F54
:10053300F053F0F8D0E045F0F59F22D083D082E568
:100543009F5407C0E0E493C0E0740193C0E07402D9
:10055300935407C0F0F5F0E59F54F845F0D0F0F55B
:100563009F22851983851882E0A3FEE0A3F52078F6
:1005730008E0A3F608DFFAE0A3FFE0A3C0E0E0A3EE
:10058300C0E0E0A3C0E0E0A3C0E0E0A3C0E010AFA0
:10059300088582188583198008858218858319D276
:1005A300AFD083D082020531D083D082E9C0E0E4AA
:1005B30093A3C386F0C5F095F0F908E493A386F0FE
:1005C300C5F095F0700BE493A3C3994005E904804B
:1005D30002A3E475F002A42582F582E5F03583F5E4
:1005E30083D0E0F9E493A3C0E0E493C0E022C0E049
:1005F300C3E49396087401939618400FE4936670CE
:100603000808740193661870007019A3A3C3E493D8
:1006130096087401939618A3A3400DD0E0D0E0D0C0
:10062300E002050BA3A3A3A3A3A3D0E022D083D00E
:1006330082C5F0E493A3C5F0C395F0F5F0E493A36A
:10064300C395F04005E5F0048001E475F002A425AC
:1006530082F582E5F03583F583E493A3C0E0E49368
:10066300C0E022C0E074F21203C0E589A2E15003A6
:1006730012189D758900C2C57F0102041FC0E07472
:10068300F21203C0E58BA2E0500312189D758B0094
:10069300C2E880E47404800474028000CCC0E0EDFE
:1006A300C0E0E518C39CCCAD1950011D10AF068CFA
:1006B300188D1980068C188D19D2AF120793D0E0CC
:1006C300FDD0E0FC2274028000CCC0E0EDC0E0E588
:1006D30018C39CCCAD1950011D10AF068C188D1991
:1006E30080068C188D19D2AF120771D0E0FDD0E0CF
:1006F300FC22C0E0C0F088F0E4936670080874013F
:100703009366187000A8F0A3A3700BD0F0D0E0D0CC
:10071300E0D0E002050BA3A3D0F0D0E022D083D039
:1007230082CCC0E0E493A360061207D31470FAE40A
:1007330093A360061208C31470FAD0E0FCE493A3F9
:10074300C0E0E493C0E022C0E074F21203C01219C7
:10075300217F0102041FC0E074F21203C0121927A3
:1007630080EFC0E074F21203C012192D80E3CAC0F7
:10077300E0E493A3C582CCC582C583CDC583F0A332
:10078300C582CCC582C583CDC583DAE5D0E0CA2254
:10079300CAC0E0E0A3C582CCC582C583CDC583F0C2
:1007A300A3C582CCC582C583CDC583DAE6D0E0CAB2
:1007B300227009080808226016181818C6C333C621
:1007C30008C633C608C633C608C633C6D5E0EA2210
:1007D300C0E0E493A3D39C5010E493A3C39C400ACA
:1007E300D0E0D0E0D0E002073DA3A3A3D0E022C035
:1007F30008C3E096F50808A3E096420808A3E0962C
:10080300420808A3E09645087001D3D00822740477
:10081300800A74038006740280027401C0E0F40449
:1008230012082CD0E0120A6B222518F58210AF08AB
:10083300F518400215198008F51840021519D2AFB2
:1008430085198322C0D0251810AF08F5185002056A
:10085300198008F51850020519D2AFD0D022BB0178
:1008630002E722C082C08389828A83BB0003E080BF
:1008730002E493D083D082226016080808C6C3130B
:10088300C618C613C618C613C618C613C6D5E0EADB
:1008930022C3E0C696F608A3E0C696F608A3E0C610
:1008A30096F608A3E0C696F622C0E074F21203C0DF
:1008B300C2C0E5D1A2E450031219517F0102041F03
:1008C300C0E0E493A36C7009D0E0D0E0D0E002076D
:1008D3003DA3A3D0E022251810AF08F51840021558
:1008E300198008F51840021519D2AF22E06670107E
:1008F30008A3E066700A08A3E066700408A3E06634
:1009030022C3E09608A3E09608A3E09608A3E09626
:10091300A2D265D03322C3E7960809E7960809E710
:10092300960809E796A2D265D03322C3E096F00871
:10093300A3E096F008A3E096F008A3E096F022E087
:1009430026F008A3E036F008A3E036F008A3E0366B
:10095300F022C0E0E8C0E0E58124FCF8E6A2E7D09D
:10096300E0F8D0E022E647F60809E647F60809E68C
:1009730047F60809E647F622E026F608A3E036F62E
:1009830008A3E036F608A3E036F622E627F60809C0
:10099300E637F60809E637F60809E637F622E6579A
:1009A300F60809E657F60809E657F60809E657F682
:1009B30022E056F608A3E056F608A3E056F608A38D
:1009C300E056F622E056F008A3E056F008A3E056FE
:1009D300F008A3E056F022700422600D18C6C3335A
:1009E300C608C633C6D5E0F41822E4C396F608E475
:1009F30096F608E496F608E496F622C6F4C608C608
:100A0300F4C608C6F4C608C6F4C622C3E7960809A6
:100A1300E7960809E7960809E79622C3E09608A334
:100A2300E09608A3E09608A3E0962275D0007581AE
:100A33004075180175190300020477600C08C6C3DA
:100A430013C618C613C6D5E0F422E6F008A3E6F0F1
:100A530008A3E6F008A3E6F022E0F608A3E0F60810
:100A6300A3E0F608A3E0F622CAC0E0E6F0A308DAA2
:100A7300FAD0E0FA22E0FAA3E0FBA3E0FCA3E0FD56
:100A830022EAF0A3EBF0A3ECF0A3EDF022E5C754C8
:100A9300F84401F5C77901222518F582E43519F5E3
:100AA300832212053EA5F60112053E72F7011205D7
:100AB3003E90F70112053E62870112053E748701DD
:100AC30012053E93870112053E04880112053E9EDE
:100AD300880112053E70890112053EE08901120565
:100AE3003EFB890112053E1F8A0112053E5A8A0107
:100AF30012053E9A8A0112053EBB8A0112053E0881
:100B03008B0112053EE28B0112053E938C01120507
:100B13003E238D0112053E138E0112053E568E01B2
:100B230012053E7B8E0112053ED18E0112053EF663
:100B33008E0112053E1B900112053E8F9001120596
:100B43003EB2900112053ED5900112053EFD900183
:100B530012053E0F910112053E19910112053E9DAA
:100B6300910112053E0C920112053EB59201120548
:100B73003EBD920112053E5E930112053EBE9301F6
:100B830012053E8A940112053E01950112053E3E6F
:100B9300950112053E9D950112053EEA9601120547
:100BA3003E06970112053E68970112053E0598011E
:100BB30012053E4C980112053EE7980112053E943A
:100BC300990112053ED2990112053E429A0112057E
:100BD3003E8D9A0112053EC69A0112053EF49B0111
:100BE30012053E2E9D0112053E8F9D0112053ED832
:100BF3009D0112053E009E0112053E839E011205D2
:100C03003E039F0112053E7D9F0112053EA29F01F7
:100C130012053E18A00112053EBCA00112053E526A
:100C2300A10112053E79A10112053E9EA201120502
:100C33003EB1A20112053E40A30112053E60A3018D
:100C430012053EF8A30112053E42A40112053E849B
:100C5300A40112053E70A50112053E73A7011205FA
:100C63003E7DA70112053E87A70112053E91A7010C
:100C730012053E9BA70112053EB5A70112053EBF13
:100C8300A70112053EC9A70112053ED3A70112050C
:100C93003EF4A70112053E42A80112053E4CA801ED
:100CA30012053E70A80112053E94A80112053EF1FB
:100CB300A80112053E3CA90112053E5AA9011205DD
:100CC3003ECAA90112053E07AA0112053E4EAA011A
:100CD30012053EB6AA0112053E5AAB0112053E2784
:100CE300AD0112053E4AAD0112053E1CAE011205CF
:100CF3003E42AE0112053E22AF0112053EBAB101DA
:100D030012053E1CB30112053EE3B40112053E3544
:100D1300B50112053E2EB60112053E7BB601120542
:100D23003EE6B60112053EF0B60112053EACB8012F
:100D330012053EDBB90112053E3BBA0112053EF135
:100D4300BA0112053ED9BB0112053E96BD0112053B
:100D53003EB5BD0112053E11BE0112053EE9BE01BD
:100D630012053E0EBF0112053E5FBF0112053E4153
:100D7300C00112053E79C00112053EB9C00112053A
:100D83003E1CC10112053E38C20112053E98C20144
:100D930012053E7EC30112053E86C50112053EA221
:100DA300C50112053E47C70112053E8DC701120555
:100DB3003E6BC80112053EC5C80112053E0DC901AF
:100DC30012053E7DC90112053E0BCA0112053E8F75
:100DD300CA0112053EFBCA0112053E132200120589
:100DE3003E65220012053E9F240012053EEB2400BF
:100DF30012053EBD250012053E2C260012053E6F4E
:100E0300270012053EBC290012053EE32A00120505
:100E13003E4A330012053EC7330012053E473600F3
:100E230012053E33370012053EDF370012053E1030
:100E3300390012053E033A0012053E1A3D00120521
:100E43003E1C3F0012053E7C3F0012053E3D400024
:100E530012053E68400012053E09410012053EEDB1
:100E6300410012053EC8420012053E5C43001205D4
:100E73003E89430012053EAB430012053E9E4500EA
:100E830012053E7E460012053ECB460012053E2C5F
:100E9300470012053EEE470012053E2348001205A7
:100EA3003E71480012053EA1480012053EDF48008E
:100EB30012053E37490012053E3C490012053E9794
:100EC300490012053EBF490012053EDE4A001205E5
:100ED3003E4A4B0012053EB44B0012053E404C0007
:100EE30012053E574F0012053E23500012053E9354
:100EF300510012053EE7530012053E8F54001205C0
:100F03003E44550012053ED2560012053E6F57006F
:100F130012053EB7570012053E53590012053E67AE
:100F2300590012053E74590012053E8F59001205EF
:100F33003E9B590012053EB9590012053EB65B00AF
:100F430012053EA95C0012053EED5C0012053E70E1
:100F53005D0012053E715E0012053E2F5F00120513
:100F63003ECE600012053EA3610012053E446200BE
:100F730012053ED4620012053EEB620012053E24C8
:100F8300630012053E2E630012053E3A630012050C
:100F93003E58630012053E9C630012053EED63005C
:100FA30012053E0E640012053E28640012053EA0A1
:100FB300640012053EE1650012053E2B6600120532
:100FC3003E1E670012053E3A670012053E9D67000C
:100FD30012053EF2670012053EB0680012053EBFDF
:100FE300690012053E6B6A0012053E426B00120552
:100FF3003EAE6B0012053E426C0012053E126D00C0
:1010030012053E416D0012053EA06D0012053E4ED5
:101013006E0012053E746E0012053EEC6E00120562
:101023003E116F0012053E346F0012053E6F6F00D4
:1010330012053E4D710012053E30720012053EE866
:10104300720012053E7D740012053ED17400120534
:101053003E14750012053E83750012053EF77500B8
:1010630012053E50760012053E76760012053EB11B
:10107300760012053EDD760012053E287700120544
:101083003E81770012053EFD770012053EDB7800B6
:1010930012053E6D7A0012053EDA7A0012053E0310
:1010A3007B0012053E697B0012053EC07B001205E2
:1010B3003EF97B0012053E4E7C0012053E737C0018
:1010C30012053EB97C0012053ED67C0012053E8017
:1010D3007D0012053E6BD00312053EB6D003120508
:1010E3003E6C800212053EA0800212053E7681020C
:1010F30012053E4A820212053E75830212053EF92D
:10110300840212053E77850212053E3E86021205D1
:101113003E5F870212053ED1870212053E338802E5
:1011230012053E81880212053E8B880212053EC9D4
:10113300880212053E32890212053ED18902120548
:101143003E4F8A0212053E048B0212053E768B0245
:1011530012053E9C8B0212053ECC8B0212053EF912
:101163008B0212053E9F8C0212053EAF8C021205C4
:101173003E028D0212053E0E8D0212053E1A8D02AD
:1011830012053E238D0212053E848D0212053EE4B4
:101193008D0212053E358E0212053E508E02120557
:1011A3003E808E0212053EA18E0212053EAD8E02D6
:1011B30012053EEE8F0212053E0C900212053E759B
:1011C300900212053E88900212053E9F900212057E
:1011D3003E32910212053E31920212053E2D9302D8
:1011E30012053EAF930212053EB9930212053E1C4F
:1011F300940212053E2D940212053E7094021205CC
:101203003EB7940212053EED940212053E23950269
:1012130012053E41950212053E65950212053EA652
:10122300950212053E99960212053EDF96021205BB
:101233003E1A970212053E79970212053EA19702C4
:1012430012053EDA970212053EE8970212053E495F
:10125300980212053E86980212053EC898021205AE
:101263003EF9980212053E2D990212053E38990265
:1012730012053E56990212053E1E9A0212053E2899
:101283009A0212053E6D9A0212053ED79A02120582
:101293003EEB9A0212053EE39B0212053EF69B02C9
:1012A30012053E0B9C0212053EAB9C0212053E0F3B
:1012B3009D0212053ED29D0212053EDD9D021205DE
:1012C3003EFC9E0212053E189F0212053E709F02CD
:1012D30012053EA79F0212053EC19F0212053E352D
:1012E300A00212053EC6A00212053E0EA10212057F
:1012F3003E29A30212053E93A30212053EFEA3025A
:1013030012053E57A60212053E67A60212053E6A63
:10131300A60212053E76A60212053E8AA602120511
:101323003E92A60212053EC7A60212053E75A7020B
:1013330012053EE5A70212053E49A80212053EE248
:10134300A80212053E7CA90212053EAAA9021205B3
:101353003E40AA0212053E6FAA0212053E91AA025E
:1013630012053EB8AA0212053E1EAB0212053E88C4
:10137300AC0212053E8BAC0212053E02AD02120511
:101383003EEEAD0212053EC6AE0212053E50AF025E
:1013930012053E5BEB0112053E37B10212053E70AA
:1013A300B10212053EA1B10212053EAAB102120515
:1013B3003E96B20212053E12B30212053EA2B302DA
:1013C30012053E6CB40212053EF0B40212053E262D
:1013D300B50212053E6FB50212053E54890312058C
:1013E3003E62890312053E09F60112053E038A0394
:1013F30012053E568A0312053EF28B0312053ED2B6
:101403008D0312053EB1900312053EDD90031205D4
:101413003EFD900312053E5B910312053E99910335
:1014230012053ED7910312053E1D920312053E7A23
:10143300CF0312053EF4CF0312053E0080031205CD
:101443003E0A800312053E52800312053EC080030C
:1014530012053EE3800312053E83810312053E32EB
:10146300840312053E3B840312053E888403120560
:101473003EB1840312053E11850312053EA7850381
:1014830012053EDB850312053E28860312053E82C4
:10149300860312053EB0860312053E388703120504
:1014A3003E7D870312053EBC870312053EF1870389
:1014B30012053E03880312053E15880312053E34C8
:1014C300880312053EEB880312053E2B89031205A0
:1014D3003E52CD0312053E80BD0312053EE4BD031B
:1014E30012053E08BE0312053E01BF0312053E9DD1
:1014F300CE0212053E7CCF0212053EB8CF02120582
:101503003E55D10212053E97D10212053E4BD3023E
:1015130012053E8FD30212053E70D40212053EFD22
:10152300D40212053E88D50212053EDED50212050D
:101533003E1ED60212053EC0D70212053E49D9020D
:1015430012053E60DB0212053E6EDB0212053ED33E
:10155300DB0212053EACDE0212053EE8D1031205A2
:101563003EFED10312053EC0D00312053E2BB50348
:1015730012053E3EB50312053EDCB50312053E17C8
:10158300B60312053E32B60312053E57B6031205E3
:101593003E9CB60312053ECDB60312053EFEB603CE
:1015A30012053E75B80312053ECFC40312053E3C37
:1015B300C50312053E58C50312053E9AC50312051D
:1015C3003EAAC50312053E42C60312053E4CC6039E
:1015D30012053E64C60312053EF2C80312053E69B6
:1015E300C90312053EE0C90312053E1FCA031205D3
:1015F3003E8AED0212053ED5ED0212053EC5EE020E
:1016030012053E57EF0212053EA1EF0212053EF00E
:10161300EF0212053E04F00212053E38F0021205F5
:101623003E50F10212053EA2F10212053EC3F10241
:1016330012053E04F20212053E39F20212053E92F1
:10164300F20212053EB0F20212053E13F302120536
:101653003E92F40212053EB4F40212053EE9F4028E
:1016630012053E11F50212053E1EF50212053E2338
:10167300F50212053E26F50212053E72F502120529
:101683003E17F60212053E3CF60212053E46F602EE
:1016930012053E49F60212053EBDF60212053ED87A
:1016A300F60212053EEBF60212053E26F70212057C
:1016B3003E29F70212053E34F70212053EAC7F00C5
:1016C30012053EC47F0012053E7FF70212053ECE8F
:1016D300F70212053E72F90212053E28FB021205BB
:1016E3003E70FB0212053EB6FC0212053E01FE02ED
:1016F30012053E23FE0212053E6DFE0212053EEF69
:10170300FE0212053EB5B50212053ED6B50212051C
:101713003E60B60212053EE9B60212053E65B70207
:1017230012053EC8B70212053E14B80212053E83E5
:10173300B80212053E0DB90212053E84B902120524
:101743003EC6B90212053E86BD0212053E63BF02C4
:1017530012053E07C00212053E45C00212053EDFD8
:10176300C10212053E3BC40212053EC2C402120569
:101773003EB8C50212053E22C90212053E32C90215
:1017830012053E92CA0212053E0DCB0212053E55CA
:10179300CC0212053E73CD0212053E07CE0212059E
:1017A3003EEDDE0212053EACDF0212053E23E002EF
:1017B30012053ECAE00212053E27E10212053E0170
:1017C300E40212053EBBE40212053E20E5021205C7
:1017D3003EC7E60212053E7BE70212053EEBE70237
:1017E30012053E89E90212053EBBEA0212053E5488
:1017F300EB0212053E4AEC0212053E34D2031205F7
:101803003E37D20312053E6FBF0312053EBEBF0330
:1018130012053E77C00312053EDDC00312053E4F9D
:101823009C0312053EA89C0312053E279E03120546
:101833003EE9CE0312053E35CF0312053E1DC30319
:1018430012053E2BC30312053EC89E0312053E50EC
:10185300CE0312053E60CE0312053E7ECE03120573
:101863003EDFCE0312053E22CA0312053E49CA03D8
:1018730012053ECECA0312053E27CB0312053EDDF9
:101883009E0312053E40CB0312053E62CB031205B5
:101893003ECCCB0312053ED7CB0312053E1BCC0334
:1018A30012053E2D970312053E3B970312053E7723
:1018B300970312053E91970312053E0E98031205F6
:1018C3003E08990312053E2D990312053E4A9903DA
:1018D30012053E67990312053E8C990312053EB427
:1018E300990312053E039A0312053E7D9A031205DE
:1018F3003E219B0312053EC6B10312053ED4B1033C
:1019030012053E4EB20312053E1AB30312053EC63C
:10191300B40312053E67C60312053EA0C6031205B3
:101923003EBDC60312053E1BC70312053E80C70317
:1019330012053E5B920312053EC8920312053E84D4
:10194300930312053EA1940312053E3D960312052F
:101953003EA1960312053EF6960312053EFF96033B
:1019630012053E0E970312053E24970312053E000F
:101973009F0312053E539F0312053E5BA10312050D
:101983003E8DA10312053EAFA10312053EC8A1037C
:1019930012053EE1A10312053EE3A20312053E71C7
:1019A300A30312053E4EC10312053E80C103120577
:1019B3003E8CC10312053EBFC10312053EF0C103B5
:1019C30012053E1EC20312053E93C20312053EC218
:1019D300C20312053E8CB80312053EB2B8031205CA
:1019E3003EEFB80312053E01B90312053E1DB903CC
:1019F30012053E8BB90312053E94B90312053EF35B
:101A0300B90312053E17BA0312053ED6BA031205EF
:101A13003EE3BA0312053EF4BA0312053EFFCF03B9
:101A230012053E4CD00312053E9EAE0312053EE660
:101A3300AF0312053EF3AF0312053E06B0031205D2
:101A43003E25B00312053E3BB00312053E4FB003E3
:101A530012053EC9B00312053E5FB10312053EA74E
:101A6300B10312053EB7B10312053E2AFF02120568
:101A73003E4EFF0212053E76FF0212053E9EFF0216
:101A830012053E22BB0312053E3BBB0312053E4734
:101A9300BB0312053E5BBB0312053E79BB03120574
:101AA3003E83BB0312053E8DBB0312053EA0BB0361
:101AB30012053EF4BB0312053E2DBC0312053E5C2A
:101AC300BC0312053EAABC0312053EF9BC03120572
:101AD3003E14BD0312053E1EBD0312053E2FBD037A
:101AE30012053E75BD0312053E0BD10312053EC020
:101AF300F70112053EECF70112053E08F801120545
:101B03003E1BF80112053E31F80112053E9DF80116
:101B130012053ED0F80112053E2DFC0112053E5878
:101B2300FD0112053E8BFD0112053EF0FD0112057C
:101B33003ED8FE0112053E00FF0112053E15FF01CE
:101B430012053E25FF0112053E69FF0112053EBE47
:101B5300FF0112053ECEFF0112053EBFC70312056A
:101B63003EDAC70312053E03C80312053E1DC80330
:101B730012053E42C80312053E61C80312053E79B1
:101B8300C80312053EA7C80312053EC1C8031205C8
:101B93003E53D10312053ED8AA0312053EDFAA0322
:101BA30012053EEBAB0312053E1BAC0312053E418F
:101BB300AC0312053E74AC0312053E86AC0312055A
:101BC3003EC0AC0312053E26AD0312053E5FAD03D6
:101BD30012053EABAD0312053ED8AD0312053EF828
:101BE300AD0312053EBA7D0012053ED27D001205FB
:101BF3003EC47E0012053E52CC0312053EB1CC0317
:101C030012053EEFCC0312053E30CD0312053EB064
:101C1300A30312053ECFA30312053E1AA403120524
:101C23003E36A40312053E6EA40312053E7BA403B5
:101C330012053E98A40312053E7BA50312053EB28E
:101C4300A50312053EB9A60312053EC4A603120559
:101C53003ED6A60312053EDFA60312053EE9A60300
:101C630012053E50A70312053ECAAA0312053E936E
:101C7300D10312053EC3FF0212053EC0D103120574
:101C83003E08D20312053EFFE90112053E53E90166
:101C930012053E9AE70112053EAAE50112053E3BF5
:101CA300E50112053EE0E40112053E6DE401120573
:101CB3003E43E40112053E31E20112053E09E20111
:101CC30012053EAEE10112053E8BE10112053EBA5B
:101CD300E00112053E62E00112053ECCDE01120571
:101CE3003EC9DE0112053EC9DD0112053EA9DD0133
:101CF30012053EF9DC0112053E7BDB0112053E4273
:101D0300DB0112053E13DB0112053E9DF4011205B2
:101D13003E45F20112053ED8F10112053E87F1015D
:101D230012053EF0F00112053E10DB0112053E02E2
:101D3300DB0112053EEEDA0112053EE3F001120566
:101D43003EDBDA0112053EDDD90112053E6DD901F4
:101D530012053E33D90112053ECB890312053EB667
:101D6300ED0112053EDBD80112053EAAD80112058A
:101D73003EC2D50112053E80D50112053E74D50140
:101D830012053EE7D40112053E35D40112053ED4B7
:101D9300D10112053E3ECF0112053E08CF011205C7
:101DA3003E9CCD0112053E4BCD0112053E8FCC0169
:101DB30012053E62CC0112053EB4CB0112053E87EB
:101DC300CB0112053E4DCB0112053E85B00200004A
:101DD3000080FBC2C732E473000136360101000103
:101DE30002010001030100010401060605020000CF
:101DF300070100340801000F090401010D0100FF70
:101E03000E08000017020000190100FF1A0100016B
:101E13001B0100FE1C0100081D0200001F01000140
:101E230020010001210200002301000F2402000011
:101E33002601000127010008280200FF2A010007EC
:101E43002B0102402C0100002D0100012E01000195
:101E53002F0100FF30010B1C310800003A0100087C
:101E63003B01000F2F0100000302710230016002E9
:101E730011027002010202020202800210026102D8
:101E83003A004100630273027202620243020002DB
:101E930013023800000200020402120200020002D0
:101EA3000002000204020402370037003C0244022D
:101EB30000023900000200026502000235028102BD
:101EC3000002050282028302000201017101010185
:101ED3000101110101013101010101018001100121
:101EE30061013B001400630173017201620143014C
:101EF3000001130106013D01350004011201000137
:101F030000010001000104010401330133013C011C
:101F13004401320136000001000165010001350072
:101F230081010001050182018301000103047104A1
:101F33000204600411047004020402040104020494
:101F4300100461040004140463047304720462043F
:101F530043040004130406040004000404041204EC
:101F6300000400040004000451046400000400049D
:101F73000004440400040004000400046504000495
:101F83003504810464000504000483040004010390
:101F9300710301030103010301030103220302038C
:101FA3000103100300030003000300030003000305
:101FB3000003420300032403060300030003040396
:101FC300120325032303250323030403040300034C
:101FD300000300034403000300032303000365031A
:101FE30021003503810300030503000300030003FD
:101FF3000300710030016000110070003102200302
:10200300500480001000610000001400630073009E
:10201300720062004300000013000600000000008D
:10202300040012000000000000000000040004008F
:10203300370037003C0244000000000000000000AD
:1020430065000000350081000000050000008300EA
:10205300000036000100060000000F000000000031
:10206300000000000000000003FFFF00000403FF66
:10207300FF0000FFFF0FF4010005C404032000016B
:1020830000000B000000000000000003010F00002F
:10209300B917130059170100B917020023170300DA
:1020A300291704002F170500351706004117FFFFF6
:1020B300000001170E06470E08410E0B530E109F2A
:1020C3000D021D0E05350E07230E0CFF0D0D0B0E15
:1020D300FF0000030003000400080010001F003E7F
:1020E300007B00F600EC01D703AF075D0FB91E714B
:1020F3003D00001F124F1225122B1249123D1237B9
:102103001255125B1261126D12311219121312035E
:10211300EAF5E5D5D5C5B5A5959585857575656547
:1021230055554545353525251515059C36063A7013
:102133003DD9404344AD47174B814EEA5100160F3A
:1021430000000B150B020002220F320000060001F3
:1021530002030405060708090A0B0C0D0E0F0913E9
:102163001B132113E9112713E311EF117B139913A8
:102173009F1381138D13871323111D1159115F11A0
:1021830053110B11303017181921301B1D1F30004C
:10219300034948424D181725050200383C3E363B9B
:1021A3003B352B432C303016181920231A1C1E30B4
:1021B3000C0E020B040B0A0708000F000119161876
:1021C30016161523030043126712CB1D73127912DF
:1021D3006F132D1333133F1339132F113511291196
:1021E30065110005150D091008040000000000002A
:1021F3003B114D1100BE040A0E000400150001033B
:1022030009280C05100C0A0900040008040F0C0827
:10221300C082C083E99003D0F0E4900384F0121BE2
:10222300E59003E3E4F0A3F09003D1F0A3F01210E0
:102233004B120B1D120CD3121BEB900346E4F0A3BD
:10224300F0900400E07002A3E06009900400125BC8
:1022530087121DD9902210E493FA7902121C4502C9
:102263004B4374F2120354EAFEEBFF74805FF9E40C
:102273007001E960619003D0E0F91214778A088B4A
:1022830009EA7001EB60467B0080010BEB75F003FC
:10229300A424B5F8E5F03420F988828983E493FA1D
:1022A30074FF6A6021850882850983E06A70DCAA6D
:1022B30008AB0988828983A3E493C0E0740193F592
:1022C30083D082121DD9AA08AB0912146BEEFA74DB
:1022D300806FFB02249174105FF9E47001E9601DC3
:1022E300120ED18A088B09EA7001EB600A120E0BF9
:1022F300AA08AB0912146BEEFA741080D4EE5420C2
:1023030070030223DE750C001247E07001EB7010BE
:102313007C027D007A207B009003D0E0F912158BBC
:102323007C0079047A007B00120E9B8A088B09805B
:102333000D740188828983F0850A08850B09E508F5
:102343007002E50960707C007904AA08AB09120EDB
:102353009B8A0A8B0B750C01E5082404F8E5091226
:102363004F0E24FFF0A3E034FF1253C57002A3E025
:1023730070C6E5082409F8E5093400F98508828563
:102383000983A3A3A3A3A3A3A3A3A3A3E0640170AB
:10239300A0850882850983A3A3A3A3A3A3E0540470
:1023A300708F740688828983F07AB78508828509DD
:1023B300831225B28082120E6B7C0079017A007B36
:1023C30000120E9BEA7001EB7009E50C70057A2090
:1023D30012249474206EFAEF0222D5EE5410600793
:1023E300120D0F741080EEEE54406007120D8774C7
:1023F3004080E2EE54806007120C2B748080D67408
:10240300015FF9E47001E9601A900402E07002A32D
:10241300E06009900402125B87121DD9EEFA740181
:102423000222D474085FF9E47001E9602D120CDF15
:1024330090120CE06401701B90120DE06015FC75A6
:10244300F0E8A4CCAAF075F003A42AFD7A007B0877
:10245300122623EEFA74080222D474025FF9E470A0
:1024630001E9600A121015EEFA74020222D4740410
:102473005FF9E47001E96012125F07125892790163
:10248300123729EEFA74040222D47A007B00022A5E
:10249300D67B009003D0E0F91215912274F7120352
:1024A3005474E11208D9EAFEEBFFEE7001EF6033DA
:1024B300851882851983AC82AD83120F01740612CD
:1024C3000A9BE0601E7417120A9BE0FD7401120A56
:1024D3009BE0FCEEFAEFFB7900120AABE9600479AA
:1024E300A480027900024A8874F6120354EAFEEBD0
:1024F300FF8E828F83A3A3A3A3A3A31248DA54401E
:1025030060178E828F83125B8712607C60067AFF6E
:102513007BFF80321225A6802390036FE0A2E15057
:1025230018741059F9E47001E96004794080027964
:10253300001225A6120CE58003120F2574FE6A70A3
:102543000374FF6B60458E828F83125B871260C8B2
:10255300120F91E98E828F83600612259FE4800516
:1025630012259F7401F07CE77D0D8E828F831251BB
:1025730081121C3FE9F5087015EE7001EF600979CF
:1025830001EEFAEFFB120E77025B7D7508CDAA0808
:102593008E828F831225B2E960DF80ECE0240D1276
:1025A3005189228E828F831262C7FAA3E0FB22E055
:1025B300240C124AD9F9120DF32274F6120354E9CA
:1025C300FEEAFF7A0F7B00121465EA7001EB6019D3
:1025D300740C8A828B83F0EEA3A3F0EF8A828B8341
:1025E300A3F0125D6779008034EEF9120EA18A0818
:1025F3008B09A808A909E87001E9601F740688829D
:102603008983A3A3A3A3A3A3A3127226A3A3A3A310
:10261300A3E0F9120D99EEF9120E7D7910025B9089
:102623009003D0E0F91215852274EE120354EAFEEA
:10263300EBFF8C088D09890E7412120A9BE0F510CA
:10264300A3E0F511851082F583E4F0A3F012273F90
:10265300EE241DF8EF3400F9880C890D88821227C7
:102663006460191227587014850A82850B83124CF3
:102673002E8510828511831258928003750E008572
:102683000C82850D831262C312063001093A27A614
:1026930026C026D226DD26C926FE263A2711272A5A
:1026A3002733277810120819AC08AD09EEFAEFFBAF
:1026B300120CF77402120847E9F50E807AEEFAEF6E
:1026C300FB120CFD8071EEFAEFFB120D3F8068A93F
:1026D3000EEEFAEFFB120FD380DEEE241712689A88
:1026E30064027053E50E700A12274C7003A3E0696D
:1026F3007045EEFAEFFB120F61803CEE241712686F
:102703009A64027032EEFAEFFB120F4980299004AB
:1027130004E07002A3E0601FEEFAEFFB90040412E2
:102723005B87121DD98010EEFAEFFB120FDF8007D3
:10273300EEFAEFFB120FEBA90E0256A4EE2409F8F2
:10274300EF3400F9880A890B22850A82850B8312EC
:10275300661CE06822850A82850B8312608064020E
:1027630022F5831262C7F9120F73E92274ED120383
:102773005474DE1208D9EAFEEBFFEE2402124F175F
:10278300F9120EA18A088B09EA7001EB7003022883
:1027930054EE240C1229A5EA2409F50AEB12712C34
:1027A300EA2406F50EEB1232DD8E828F83A3AE820E
:1027B300AF83E064F16017E064CD6012E0641A60F7
:1027C3000DE064E96008E064E160030228E4850E3B
:1027D30082850F83A3E05408F9E47001E9607F74F4
:1027E30005850A82850B83F0900408E07002A3E05C
:1027F3006009900408125B87121DD990040AE070E7
:1028030002A3E0603390036FE0A2E1502B850882BE
:102813008509831268AAA3A3A3A3A3A3A3124A921D
:102823001232E9EA7001EB600F8E828F83E0F99038
:10283300040A125B87121DD9850A82850B83E06423
:102843000270037406F0851082851183E0F9120E7D
:102853007D120E6B74221208477F0B020565790007
:10286300120E77E9607B90036FE0A2E15064850864
:1028730082850983126C2D7002A3E06055740312E4
:102883000A9B126C178E828F83E064E970181229F9
:10289300AD12081D8E828F83E0F512781212081D87
:1028A300123CE7120847740C120A9B125181125B07
:1028B300811260C87408120A9BE0600479408002A8
:1028C3007900740E120A9B124F1F740C120A9B128A
:1028D30032E2850E82850F83E04420F0A3E00227D5
:1028E300EA8E828F83E0C0E07402120A9BD0E0126A
:1028F3005537125E5812688E12689D8518828519A5
:1029030083AA82AB837005120C4F8003120F6D8E66
:10291300828F83E064F16034E064CD602FE0641A59
:10292300602AE064E16025E064F060207402120A2A
:102933009BE0FC74B76C60141229AD12081DECF512
:1029430012781212081D123CE712084790036FE039
:10295300A2E1400302283B850A82850B83E06402DF
:10296300702A850E82850F83E05404601F125B81F9
:1029730012607C7013125B8174FFF0A3F074058501
:102983000A82850B83022848740380F38E828F8327
:10299300E064E9600302283BAA08AB09120FF102C5
:1029A300283BF50CEF3400F50D2285088285098359
:1029B3001262B075120178122274F2120354EAFE05
:1029C300EBFF750C00750D00EE2409127129EE243E
:1029D30005F8EF1265C9603A750C08850A82850B04
:1029E3008312518179FF121D1DEA7001EB600D7591
:1029F3000C2C850882850983E0D2E0F08508828566
:102A03000983E0540364016003022ABD430C1102ED
:102A13002ABDEE241812689A603AEE241A12689AB4
:102A2300FA701D12274C7003A3E0697006750C221F
:102A3300022ABD900384E06404707F750D01807ADF
:102A4300EE241B124F1CEE2419122ADB120D51E93E
:102A5300706880E71227587003750C01850A828518
:102A63000B831257AE7003A3E06B7006E50CD2E143
:102A7300F50C124032E50C6015850882850983E068
:102A83007006E50CD2E58004E50CD2E6F50C120FD6
:102A930091E964017006E50CD2E0F50C85088285A6
:102AA3000983E06015EE241DF582EF3400122764DC
:102AB30064016006E50CC2E0F50CE50CA2E1400AF6
:102AC300E50D7006E50CD2E7F50CA90C800574033F
:102AD3001208477F06020565F582EF1268A4F92202
:102AE30074E812035474DC1208D9EAFEEBFF85186C
:102AF30082851983125E69751400751500740512B9
:102B03000A9BAC82AD838E828F83A3A3A3123CD78F
:102B1300A3A3125181120F01EE241BF582EF124C75
:102B23002B7412120A9B125892740B120A9BE060C8
:102B330022741C120A9BE0FD7406120A9BE0FC8EB1
:102B4300828F83A3A31251817901120AABE9600337
:102B53000230EA7405120A9BAA82AB83120E05E9BE
:102B6300F508740B120A9BE0700E90036CE060088A
:102B7300E9A2E140030230EAE9A2E65027742212F7
:102B83000A9B126069E064037006A3E0640D60149D
:102B93007405120A9BAA82AB83120FC7E964017002
:102BA300030230EAEE2412F516EF3400F517EE2493
:102BB3002A127129EE242C1274531237D8E068704C
:102BC30003A3E069701C750900780912081D7809D0
:102BD30012081DEE242E122ADB1232F5123CF712D4
:102BE30008477408120A9BE0FA900372E06A6003D4
:102BF3000230EA740B120A9BE07003022C98123223
:102C0300F51232E98A0A8B0BA80AA90BE87001E9CD
:102C13007003022D457406120A9B1232F0FAA3E0E8
:102C23003400FB740D2AF582E43BF583E0FAE824D3
:102C330004F50AE912712CE82403F582E912689D70
:102C43006A600DEAF0908750780C120A5C123334F4
:102C530079047406120A9B1232F0FCA3E034008C50
:102C630082F583A3AA82AB831214538A0C8B0D8C37
:102C73000E8D0F850A82850B837810120A5C7810FB
:102C8300790C120A0E50030230EA90874C780C122A
:102C9300097B123334EE24241232DAEE2430122963
:102CA300A5EE242F12712990036FE0A2E1500302D5
:102CB3002DDC900384E0FA74046A600874096A6086
:102CC300030230EAE508A2E54003022D8B12689760
:102CD300C0E07402120A9BD0E0123327C0E07403F1
:102CE300120A9BD0E0123D11C0E07404120A9BD07B
:102CF300E0F07416120A9BE0640170207410120A4B
:102D03009B12331B7003A3E0697011740E120A9BAC
:102D130012275E70077416120A9BE4F0850E8285F3
:102D23000F831206977406120A9BAC82AD83740953
:102D3300120A9BAA82AB83120C5574041208470231
:102D430030EA9003C9E064016003022C98742212F4
:102D53000A9B1262C364067009E508A2E6500302E7
:102D63002C987412120A9BE064FF7004A3E064FFC2
:102D730070030230EAEEFCEFFD7405120A9BAA828F
:102D8300AB83120E110230EAA2E640030230EA746A
:102D930022120A9B123305701C741C120A9BE064F6
:102DA3000260030230EA7405120A9BAA82AB831203
:102DB3000F610230EA74076A60030230EA741C127E
:102DC3000A9BE0640460030230EA7405120A9BAABA
:102DD30082AB83120F550230EA7416120A9BE0602D
:102DE3001D8E828F83A3A3123D0C141242B9A3122A
:102DF3003D0CC0E07416120A9BD0E0F07006E508A3
:102E0300C2E7F508E508A2E35066751510A2E25083
:102E130018740A120A9BE054E3F0740A120A9BE046
:102E2300131313541FFAE08031A2E4502F740A12D3
:102E33000A9BE0FB741C5B1313543FFA600974078D
:102E43006A600A1AEA7006E508C2E7F508EA33334E
:102E530054FCC0E074E35BFAD0E04AF0740A120A4F
:102E63009BE0C0E08E828F83A3A312466DD0E0F077
:102E7300900384E0FA74046A600574096A706D74DF
:102E83000E120A9B1257AE7003A3E06B6017120F6A
:102E930091E96402600F740A120A9BE0540364010F
:102EA30060030230EA7407120A9BE07027126897E6
:102EB300C0E07402120A9BD0E0123327C0E074030F
:102EC300120A9BD0E0123D11C0E07404120A9BD099
:102ED300E0022D1E7422120A9B1233057003022D89
:102EE3009C74076A60030230EA022DC075090074FE
:102EF30061550870030230F2E508A2E0507D8516A3
:102F030082851783124F1F7405120A9BAA82AB8313
:102F1300120D8DE97062120F31E9F5097416120A68
:102F23009BE0700F7410120A9B12331B7003A3E013
:102F3300696048A909851682851783124F1F740596
:102F4300120A9BAA82AB83120D93E96020E508A2C3
:102F5300E3500C85188285198374FFF0A3800874ED
:102F63000E120A9B126229F0751404800EE508C242
:102F7300E5F508750900800353089FE508A2E550AD
:102F830048126897C0E07402120A9BD0E0123327FC
:102F9300C0E07403120A9BD0E0123D11C0E0740438
:102FA300120A9BD0E0F0850E82850F831206977478
:102FB30006120A9BAC82AD837409120A9BAA82ABE8
:102FC30083120C557404120847E508A2E6504485A1
:102FD300188285198385820A85830B780A1208195A
:102FE300A909851682851783124F1F7407120A9B3E
:102FF300AA82AB83120DF97402120847E9F509603E
:10300300127422120A9B1262C36401700674104583
:1030130014F514851882851983E064FE7004A3E017
:1030230064FF7003750900E508A2E740030230EA74
:10303300E50970030230EA85188285198312331B70
:103043007003A3E069700B741D120A9BE070030206
:103053002D788E828F83A3A3A3A3E0FA7B0012149F
:10306300E38A0A8B0BEA7001EB607C8E828F83A369
:1030730012330D1208158E828F83A3A3A3A3E0FC42
:103083007D001242AA1208477407120A9BE0C0E0AF
:103093007402120A9BD0E0F07403120A9BE4F0A3BB
:1030A300F07402120A9B85820C85830D780C12083A
:1030B300197814120819E509F508780812081D8E05
:1030C300828F83A3A3A3A3E0F97405120A9B124F73
:1030D3001FAA0AAB0B120EE97405120847E9600731
:1030E300AA0AAB0B1214E974241208470253A374FF
:1030F30007120A9BE06401703B7422120A9B12625E
:10310300C36405702F85188285198385820885839A
:103113000978081208197900851682851783124FDA
:103123001F7407120A9BAA82AB83120DF974021251
:10313300084780B37416120A9BE07003022D7812BD
:103143000E71E970A2741D120A9BE070030232171C
:103153007420120A9B124F1F741F120A9BE0FA7409
:103163001E120A9BE0F9120D51E970030231FF743C
:103173001F120A9BE0F97019740E120A9B12588FE2
:103183008518828519831240EBEA7001EB70648025
:103193005F7420120A9B125181120D4B8518828590
:1031A30019831260C8740D120A9BE06004780880CA
:1031B300027800E82408FA740C120A9BE060047891
:1031C3000880027800E82AFA740A120A9BE0600475
:1031D300780180027800E82AFA0AEAF88E828F835F
:1031E300A3A3E028FAA3E034008A82F583E014F075
:1031F300751440120F31E9F509023016790B740E7C
:10320300120A9B124F1F7410120A9B125181120F44
:10321300CD0230EA740E120A9B12588FE508A2E31E
:1032230050047A4080027A00EAF509780912081DF1
:10323300741E120A9BAC82AD83740F120A9B125147
:1032430081740A120A9BE0F9120DBD74011208473A
:10325300E9600F7514208E828F83A3A31262C35477
:103263003FF0741D120A9BE06023740E120A9B1236
:103273004F1F741E120A9BAA82AB83120EFB851882
:10328300828519831260C874404514F514740712BB
:103293000A9BE06401601579007410120A9B124FB7
:1032A3001F740E120A9B125181120D57E508A2E3F7
:1032B30050047940800279007410120A9B124F1F48
:1032C300740E120A9B1232E2E970030231F6742083
:1032D3004514F5140231F6F50EEF3400F50F221202
:1032E3004AD5120CF122124AD512107B22126B73AB
:1032F3002A22850A82850B83124F2385168285171E
:1033030083221262C7FA74046A22A3E0F50CA3E0D5
:10331300F50D750E00780C2212500A85168285175A
:1033230083E0682212332B22F0850A82850B83E027
:1033330022850A82850B83E50CF0A3E50DF0A3E556
:103343000EF0A3E50FF02274F2120354EAFEEBFF32
:103353008C088D0912273F79008882F583125181E9
:10336300120DAB8A828B83E5827002E583603AA3F8
:10337300A3A3A3A3A3E05418602FE508241BF5829D
:10338300E50912745612069BE5082412F582E50935
:1033930012745612069BEE2418122ADB1233B7124C
:1033A3000DC97404120847800879001233B7120D4F
:1033B30009022AD6850A82850B83124F23EE240B3A
:1033C300124ACE2274EE12035474EA1208D98A0CFC
:1033D3008B0DEA2402F50EEB1232DD0A0AFB120B07
:1033E300538A088B09AE08AF09750901850C8285DC
:1033F3000D83A3E0F508750A01AC0EAD0F851882A5
:10340300851983AA82AB83121C097408120A9B12C2
:103413005E69740A120A9B7402F07413120A9BE425
:10342300F0E50C240AF50CE50D1229A8901A3BE0EF
:103433007010EE7001EF700AE50870067509C3029B
:10344300359D900384E0640860067509C2023599CE
:10345300850C82850D83E0A2E1500EA2E350057531
:103463000A04800C750A038007A2E35003750A025D
:10347300EE7001EF60648E828F83A3A3A3A3E0FAAF
:1034830074046A600574036A700C7404650A601C32
:103493007403650A601674026A600574016A702019
:1034A3007402650A60067401650A700F8E828F8349
:1034B30012402C120A9B125892801F74026A6005F4
:1034C30074016A700A8E828F831240F2121DD9AA88
:1034D3000EAB0F120B5F7E007F007408120A9BE095
:1034E30064FE7004A3E064FF7038120B17E97032B6
:1034F300E50860179003C1E06402700F901A42124E
:10350300402C120A9BE8F0A3E98016850C82850DF6
:1035130083E05402F9120D157408120A9BEAF0A312
:10352300EBF07408120A9B123640700374FF6B7041
:10353300057509C78060E508F50B780B12081D8532
:103543000C82850D83E0F9AC0EAD0F120C73740180
:10355300120847E97040A90AAC0EAD0F7408120AAD
:103563009B1237228A108B11AE10AF11EE7001EF50
:10357300601C74026508700BEE240512689A54FBF4
:103583004408F0740A120A9BE4F0F50980087408F1
:10359300120A9B125E69E508700F851882851983EC
:1035A300AA82AB83121C278010FCA90A8518828586
:1035B3001983AA82AB83120F4FE9FAEE7001EF6011
:1035C3003EEE2405F8EF3400F9E50860128882899D
:1035D30083E0D2E6F0740265087004E0D2E5F0857A
:1035E3000C82850D83E0A2E6500888828983E0D2AD
:1035F300E7F08E828F83A3A3A3A3A3A3E004F0E544
:10360300097003EA602FFC7D007A017B10121BF125
:10361300EE7001EF6007AA0EAB0F120B5F74081276
:103623000A9B123640700374FF6B600990035E12AD
:103633005B87121DD974161208470256A4124AD585
:1036430074FE6A2274F612035474F71208D98A08B6
:103653008B09900384E0FA74036A600D74016A6055
:103663000874096A60030237178508828B83A3AE47
:1036730082AF83E060030236FC7C007D007A027B2C
:1036830000121BF1E508240212371A1266181258A9
:10369300927953121C217900123729900384E06434
:1036A3000960099003821251811210757401125B33
:1036B300AD7404900384F07401120A9BAA82AB8355
:1036C300794A121C1B7401120A9BAC82AD837A7A6D
:1036D3007B03121C0979007401120A9BAC82AD832F
:1036E30090037812372290036FE0A2E35004D2F0E4
:1036F3008002C2F0125B958018FC7D007A037B1078
:10370300121BF18E828F83E0F9123729E490038430
:10371300F0120E4D025B8BFAE509340002501D12C4
:103723004AD5120B2F22900382124AD5120C6D2216
:10373300C082C083900346E07002A3E0704190030F
:1037430084E01207200003015537056437067337F9
:10375300823790034EE07002A3E0607690034E80C0
:103763006B90034AE07002A3E0606790034A805CB9
:1037730090034CE07002A3E0605890034C804D909E
:103783000346E07002A3E06009123D09FC74016C7A
:10379300702379009003D1800909EA125E35EB1298
:1037A300745612486C7001EB70EF9003D112518183
:1037B300120C5B801D74026C70051210098013904B
:1037C3000406E07002A3E06009900406125B87120E
:1037D3001DD9024B4312500A9003822274F4120340
:1037E3005474EB1208D9EA124C18FAE9FB8A828B5B
:1037F300837808120A5C78081209FE90038578081A
:103803001209C77F7F7E7F7C0075080175090075EB
:103813000A00750B00EC78081207B490038578084A
:103823001209B490875078081208EF602A7D00903F
:1038330003D1801288828983A3A3E06C70010D12E7
:103843005E34E91274561248DA7001E970E6EDC38A
:103853009F5004EDFFECFE0CECC3941B40AB8A823B
:103863008B837808120A5C90875078081208EF60FF
:10387300459003857808120A4D8A828B8378081253
:103883000A5C8518828519837808120A4D7404121C
:103893000A9B7401F090038BE0C0E07405120A9B4D
:1038A300D0E0F07407120A9B1239FB805B120C976D
:1038B3009003821260C89003D11248DA7001E96064
:1038C30022900382126D9AE06A7003A3E06B700A80
:1038D30088828983A3A3E06E60D3125E34E91274F5
:1038E3005680D6EE900377F0120E3BE9601AE4900F
:1038F3000384F0900350E07002A3E0600B79C4905E
:103903000350125B87121DD97415024BAC74F0126D
:10391300035474EB1208D98A828B83A3A3A3A3A3B2
:10392300A3A3A3A31262AC7C00750C01750D0075F3
:103933000E00750F00EC780C1207B4850C08850D8A
:1039430009850E0A850F0B90038578081209B49038
:10395300875078081208EF6025901A41E0C0E08C88
:1039630008EA2508F582EB12689DFDD0E0C39D505F
:103973000D780C1209FE900385780C1209C70CEC24
:10398300C3941B40A49003857808120A5C90875067
:1039930078081208EF603985188285198378081230
:1039A3000A4D7404120A9B7401F07407120A9B7483
:1039B30001F090038BE0C0E07405120A9BD0E0F0A5
:1039C3007407120A9B1239FB7406900384F0802358
:1039D300E4900384F0FCFD7A047B10121BF1900346
:1039E30050E07002A3E0600B79C4900350125B8730
:1039F300121DD97415027436E4126716121C332291
:103A030074EC12035474ED1208D98A828B83A312C7
:103A13003CCCEA2408124C1EFEE9FF851882851966
:103A230083AC82AD838E828F83123D00125181124B
:103A33000E5F851882851983E0707A8E828F83E00A
:103A4300C3940B4070850882850983A3A3A3A3A312
:103A5300A3A3A3E06402705D900384E0FAE5082465
:103A630010F510E5093400F511E5082409F50CE516
:103A7300091229A874026A604174066A603C9003C3
:103A830046E07002A3E06007123D096401605474CC
:103A9300086A600574046A701C7402120A9BE0F9D8
:103AA3007407120A9BAC82AD83850C82850D831249
:103AB3005181120E657413026B21900346E070026C
:103AC300A3E0701F750A00780A12081D780A12080D
:103AD3001D851082851183123CC3124598123CF751
:103AE3001208479003D11274CB9003D1126B19E5DE
:103AF30008240DF50EE5091232DD80318E828F83A5
:103B0300E0F8A3123CC3E0687003A3E06970128E6F
:103B1300828F83A3A3E0FA850E82850F83E06A6018
:103B23006D8E0A8F0BEE125E35EF1274C8EE7001C4
:103B3300EF70C97A187B001214E38A128B13AE124A
:103B4300AF13EE7001EF7003023AB87C181276D30C
:103B5300125E60EE240C12745374FFF0E508240B1C
:103B6300F8E509124F0E123CB91253C5C4123CB901
:103B7300A3F09003D1E07002A3E070059003D1801D
:103B83000AE50A125E35E50B127456126EE67401ED
:103B9300120A9B123CDFA3F07402120A9B123CDF51
:103BA300124F458E828F83A3A3123D11123CD6126E
:103BB30056BF240DFAEF3400FB7402120A9BE06433
:103BC30001600E7407120A9BAC82AD83121C09803C
:103BD300097C087D0079FF12144D7412120A9BE0D0
:103BE300C0E0EE2415127453D0E0124F4EFC901A2D
:103BF300B2E0C39C4003023AB812688E127456A313
:103C0300E05480F9E47001E97009901133E0700326
:103C1300023AB87D00EE240CF8EF3400F9EE240BE1
:103C2300FAEF3400FB9003C1E06402701D8A828BBB
:103C330083E0F50AC39C500D7405120A9BE0C394FC
:103C430014401B801AE50A6C70157405120A9BE078
:103C5300C0E088828983E0FCD0E0C39C50010D74EE
:103C630004120A9BE06020ED601D850882850983AC
:103C7300126793ECF0A3ED124F4E8A828B83F0749C
:103C830005120A9B124F297406120A9BE0600D74F9
:103C9300018E828F83A3A3A3A3A3A3F07404120AA8
:103CA3009BE07003023AB874018E828F83A3A3A3AF
:103CB300A3A3F0023AB8540F8E828F83A3A3A32247
:103CC300E0F9850C82850D8322A3A3E0F508A3E028
:103CD300F50922F8A3E0F98E828F8322E08E828F8A
:103CE300830278D3850C82850D83123D00124F2306
:103CF3008A828B83124AD5120F37740222E0F98A23
:103D0300828B830278D1900346124673E022F085BA
:103D13000C82850D83E02274F412035474C91208D3
:103D2300D9900384E064087003023DCD9003C1E0A1
:103D3300640270349021FFE493900366F09021FFB6
:103D4300E493900364F090874C7808120A5C900324
:103D53008D7808120A4D90874C7808120A5C9003FC
:103D6300917808120A4D8062900395E0F824DFF5FC
:103D730082E43414F583E0FA900366F0E824E0F576
:103D830082E43414F583E0FB900364F07508FF7557
:103D930009FFEA78081209DAE508F4FCE509F4FDFD
:103DA3003395E0FE90038D123EF97508FF7509FF08
:103DB300EBC39A78081209DAE508F4FCE509F4FD87
:103DC3003395E0FE900391123EF9E4125BA379046C
:103DD300121C21900395E07009741E120A9B740152
:103DE3008006741E120A9BE4F0740F8518828519ED
:103DF30083F0901A401267127946121C2174011243
:103E03000A9BE4F0901A9BE0C0E07402120A9BD074
:103E1300E0F0900372E0C0E07403120A9BD0E0F07C
:103E23007404120A9BE4F07405120A9BE4F074070D
:103E3300120A9BE4F0900395E0FAC3940F740650C2
:103E430006120A9BEA8005120A9B740FF07C967D8A
:103E5300037408120A9BAA82AB83121C097C037D9C
:103E63000079FF7410120A9BAA82AB8312144D903F
:103E730003CFE0C0E07413120A9BD0E0125CA312DC
:103E83000A9B125C92120F3D900389E0C0E0741C00
:103E9300120A9BD0E0F090038AE0C0E0741D120A7E
:103EA3009BD0E0F0900377E0C0E0741A120A9BD035
:103EB300E0F0900382124C2E7418120A9B1258924F
:103EC3007420120A9BE4F090038CE0C0E0741F128C
:103ED3000A9BD0E0F07434120A9BE4F07429120AAE
:103EE3009BE4123F047414120A9BAA82AB83121C34
:103EF300397437024BACECF0A3EDF0A3EEF0A3F072
:103F030022F07A757B037953123F0F22121C217A18
:103F1300787B03794B121C2122C082C0838A828B57
:103F230083A3E06007E4900384F0804A740890035D
:103F330084F0900395E0701F900350E07002A3E0BB
:103F4300600B7900900350125B87121DD990038296
:103F5300124F1F7A05801A7900120C6790037512AD
:103F63004F1F7A067B00121BF1900378124F1F7AC2
:103F7300047B00121BF1024B4374F412035474EAE2
:103F83001208D9EA2402FEEB3400FF0A0AFB120BE3
:103F9300538A088B09EA7001EB70030240278A8277
:103FA3008B83A3A3A3A3E0FA74016A600F74026A6C
:103FB300600A74036A600574046A7068EEFCEFFDBE
:103FC30085188285198312621F12402C120A9B12D4
:103FD3005892740A120A9B7401F07413120A9B120A
:103FE3006711121C2D890AAC0A7D007A077B001227
:103FF3001BF1850882850983A3A3A3A3A3E0C2E0E1
:10400300F07401850882850983A3A3A3A3A3A3A3B3
:10401300A3A3F07402850882850983A3A3A3A3A3A2
:10402300A3A3A3F07416024BAC12500A740822EE39
:104033002402F508EF3400F5092274F712035490B3
:1040430003D1E0FAA3E0800CEA24161274C512141B
:10405300E9EEFAEFFBEA7001EB70ED9003D1E4F0C7
:10406300A3F0024A8D74F41203548A088B09EA24DC
:104073000BFEEB3400FFEA2413F582EB12689D6418
:10408300037009EEFAEFFB120B53800CE06402702D
:10409300548E828F831240EBEA7001EB6047EA246F
:1040A30006F8EB122744850882850983A3E070078D
:1040B300E488828983802D64F16005E064E1701AED
:1040C30088828983E0640170118A828B831240F2B3
:1040D300121DD9EEFAEFFB120B5F850A82850B8363
:1040E300E0600214F0024BAF124AD5120B4D2212BC
:1040F3004AD590035E1240FC2212410022E0F8A34D
:10410300E0F58388822274F11203548A088B09EC48
:10411300FEEDFF890A8A828B83126B368A828B8338
:104123001241D9F0EEF8EFF9A30EAF838A828B83A5
:10413300A3A3E0C454F0FA88828983E04A1241E4DD
:104143001241D91241DEE0333354FCFA8E828F835D
:10415300E04A1241DEA3E033333354F8FA8E828F00
:1041630083E04AF008EFF9A30EAF838508828B83BF
:10417300A3A3A3A3A3A3E0A2E0E492E013135480B8
:10418300FA88828983E04AF0E5082407F50CEB12EC
:1041930056BA1208157C081253A81208471269B6BA
:1041A300E508240FF50CE5091229A8780C12081567
:1041B3007C031253A8120847E50AC3940F4012E583
:1041C300082412F582E5091274561241DAA3A3A357
:1041D300F07F07020565A3E0023CDA1241E4A3A3E2
:1041E30022F08508828B83A3A32274F1120354EA7D
:1041F300FEEBFF890A8C088D098E828F83E08C8207
:104203008D831242B9AE82AF83E012575F1242C36D
:10421300C412575F1242B0E054038C828D83124262
:10422300C1A2E2E492E08C828D831242C013131385
:10423300541F12575FA31242C0A2E7E492E08C829C
:104243008D83A3A3A3A31242B08E0C8F0D750E0012
:10425300780C1208157C087D00E50824071242A497
:104263001208471269B68E0C8F0D780C1208157C54
:10427300037D00E508240F1242A4120847E5082431
:1042830012F8E5093400F9E50AC3940F400A8E8257
:104293008F83A3A3A3E08001E488828983F0024192
:1042A300D4FAE5093400FB121441740322A3A312C8
:1042B30042B90EAF8322F08E828F83A322A3A3A3DE
:1042C300A3F0026A6574F412035474F91208D9EA6C
:1042D300FEEBFF900346E07002A3E06010123D097D
:1042E30064027009EEFAEFFB1210038062900382FE
:1042F300E06E7003A3E06F705674016960097A96EB
:104303007B03126BA970487A007B021247E47001A9
:10431300EB703C9003857808120A5C851882851936
:10432300837808120A4D90038BE0C0E07404120AEC
:104333009BD0E0F07405120A9B7401F07406120A14
:104343009B7402126712120C19E96098120C1F7405
:1043530007024BACE0F9024B4374F612035490038B
:10436300E2E0701F7C0079017A007B00120E9BEA69
:104373007001EB600E8A828B83E07002A3E060031E
:10438300120DED025B90C082C0831247C4401079C6
:10439300FF120E95E9FA902205E493C39A5004792B
:1043A3000180027900024B4374EE1203548A088B96
:1043B30009890D750E00EA2408F50AEB12712C85A4
:1043C3000A82F583E0F9120EA18A108B11AE10AFA9
:1043D30011750C01EE7001EF600302446D850882D4
:1043E300850983A3A3A3A3A3A3124F1F850A8285D1
:1043F3000B8312553F125181120E898A0A8B0BAE21
:104403000AAF0BEE7001EF70030245908E828F832B
:10441300A3A3A3A3E4F0A3F0E508240BFAE5091290
:1044230056B6C0E0127450D0E0F0120F9DEE240C8B
:104433001260C1750E01EE2406F8EF1247D3E05463
:104443007FF0A3E054FC124679540460030244FF56
:10445300901A94125488740778081209DA8A828BA6
:1044630083E04508F0A3E04509F0EE2406F8EF12D7
:104473004C20FCE9FD8C828D8312518174805AF5A6
:104483000874035BF50974077808120A3EE508F51A
:1044930010EE2404127129EE2409F508EF3400F517
:1044A30009E50D606074028508828509831242C4A0
:1044B300240D125185E0A2E2500F900370124C2E8E
:1044C300850A82850B83125892E510700302455DBD
:1044D300747F5AFA74FC5BFB74FF2510F51074FFAC
:1044E3003400F511740778101209DAE5104AF8E57B
:1044F300114BF98C828D83125892805EE04480F0D8
:10450300A3E002446CE5107005750C00804CEA547E
:1045130020601512145F8A10747F5510F8745F2899
:10452300850A82850B83801BEA5410600E12145F88
:104533008A10740F5510F8740F80E4850A82850B76
:10454300837401F0A3E4F07404850882850983125F
:1045530047DB7001EB7003125B707401650E703002
:10456300850A82850B83124598E0F9EEFAEFFB1278
:104573000E8FE9601BEE240C12745312486C700109
:10458300EB60031214E9EEFAEFFB1214E9750C0069
:10459300A90C0256A4124F23025F1C74F612035493
:1045A30074F71208D97E00120EA1EA7001EB7003B2
:1045B3000246688A828B83A3A3A3A3A3A3A3A3A373
:1045C300E0640660030246688A828B83A3A3A3A3E5
:1045D300A3A3A3E0FF8A828B8312466DE0C0E0743D
:1045E30008120A9BD0E012467912410112588F1229
:1045F3000EBF74085FF9E47001E96067851882856E
:104603001983124F1F7A007B00120E83EA7001EBAD
:104613007051900382124C32121C517C007D007A3F
:10462300007B0080288E828F83125F11E064FF700D
:1046330004A3E064FF602C900382124F1F121975CC
:10464300E9641A601E7C007D00EEFAEFFB120E8314
:104653008A088B09AE08AF09EE7001EF70C77900C5
:10466300121C577E01EEF9025B8B124673A3A32241
:104673001241000278D412501AE02274F712035444
:10468300EA7001EB70059003E380068A828B83A3B3
:10469300A312486C7001EB60288A828B83A3A3A3C7
:1046A300A3A3A3A3E05408F9E47001E960DDEC706F
:1046B30001ED60111262BF6C7003A3E06D70CC80DA
:1046C300047A007B00024A8D74F2120354EAFEEB73
:1046D300FF890A8C088D097A0E7B001214E3EA70B5
:1046E30001EB603BE48A828B83A3A3A3A3A3A3A3CD
:1046F300A3124725E50A124AA2125E568A828B83C9
:10470300A3A3A3A3E4F0124725A3A3F0126EE2EA46
:10471300240CF582EB1278B2A3125014F0A3F0022A
:104723002AD6A3124AA60278D674F5120354EAFED7
:10473300EBFF890A8C088D09EE7001EF6056740156
:10474300650A70147901120E95E9FA902212E49326
:10475300C39A500F791180667404650A703012474A
:10476300C440F18E828F83A3A3A3A3A3A3A3A3A374
:10477300E50A1256C6127B51E4F0A3F09003E3E07E
:104783007002A3E09003E36024124C2E800A7402AB
:10479300650A60CF79C18026E824020808E9124738
:1047A300D31248DA7001E970EF8A828B83EEF0A3AB
:1047B300EF1247DB7001EB7003125B707900027B31
:1047C300B57904120E95E9FA902206E493C39A226E
:1047D300124C20FAE902501DF01247E0227A207BA6
:1047E300009003D0E0F9121597EA22C082C083E952
:1047F300FC79009003E3801D8A828B83A3A3A3A388
:10480300A3A3A3A3A3E06C600574FF6C7001098AE2
:10481300828B83A3A312486C7001EB70DB024B43C2
:1048230074F7120354EA7001EB70059003E38006FA
:104833008A828B83A3A312486C7001EB60248A8263
:104843008B83A3A3A3A3A3A3A3A3A3E06970E1EC16
:1048530060148A828B83E0240D126A5FA2E240D047
:1048630080047A007B00024A8D124AD5EA22C08274
:10487300C0839003E380068A828B83A3A312486CD0
:104883007001EB60128A828B83A3A3A3A3A3A3A3C8
:10489300A3E06970E280047A007B00024B43C0828C
:1048A300C0839003E3800688828983A3A31248DA36
:1048B3007001E9601B88828983E0FCA3E0F5838CA7
:1048C30082E06A7003A3E06B70DDE8FAE9FB800421
:1048D3007A007B00024B4312500AE82274F1120360
:1048E300548A0A8B0B8C0C8D0D750800750900EA30
:1048F3007001EB60319003E380068E828F83A3A364
:104903001249307001EF601EAC0CAD0DEEFAEFFBF7
:10491300850A82850B83121DD9E9640170DCEEF8E8
:10492300EFF988088909AA08AB090241D4E0FEA37C
:10493300E0FFEE22790002053174F712035490036D
:10494300E3124C2E7C007D008007E8FCE9FD124C4D
:104953002EE87001E9603AE82402F582E912745600
:10496300EA687002EB6970E21251819003E31274FA
:10497300CBE86E7002E96F70099003E3EAF0A3EBF2
:10498300800EEAF8EBF98C828D83A3A3E8F0A3E908
:10499300F0024A8D74F7120354EAFEEBFFEE700146
:1049A300EF6016120EB9124AACEA7001EB60031203
:1049B30014E9EEFAEFFB1214E9024A8D74F71203BD
:1049C300541262BFFCA3E0FD9003E3124C2E750862
:1049D300007E00803388828983A3A3A3A3A3A3A318
:1049E300A3A3E0640570180E88828983E0FFA3E027
:1049F300F5838F82E06C7003A3E06D700205088875
:104A0300828983A3A3124C2EE87001E970C7EA24BC
:104A130004F8EB3400F9902202E493FCE508C39C0C
:104A2300500B902203E493FCEEC39C400B888289D5
:104A3300837401F0A3E4800A900370124A92ECF0AD
:104A4300A3EDF074058A828B83A3A3A3A3A3A3126C
:104A53004A9FA3A3E0F0A3E04408124679FAA3E037
:104A6300FB8A828B83E064FF7004A3E064FF600E23
:104A7300900382124F1F121C4BE9641A70057901CF
:104A8300121C578005741F1208477F010205651227
:104A93004F2380033400F98882898322A3A3A312BE
:104AA3004AA62212501A0278D68E828F83E0241CE3
:104AB300124AD9FAA3E0FB1214E98E828F83124AB9
:104AC300D51214E9EE240C124ACE22F582EF3400FB
:104AD300F583E00225AD12518DE022C082C083EA46
:104AE300FCEBFDEC7001ED70047905804CEC24FBCC
:104AF300F582ED34FFF583E07002A3E07011EC243E
:104B0300FFF8ED34FFF988828983E064FF600512C2
:104B1300146B80D59003D0124F29902209E493F9A6
:104B23007AE57B0312149BE96401700B7A007B1016
:104B3300125B7479008002790480057402120847BD
:104B4300D083D08202053174F4120354A2AFE492ED
:104B5300E0F508C2AF9003E51249307001EF603D04
:104B6300EE24FBF582EF34FFF583E07002A3E07AD5
:104B7300007B109003D06005125B778005E0F9128B
:104B830014A7750A00750B00780A120819EEFCEFDA
:104B9300FD7AE57B031214957402120847E508A217
:104BA300E092AFEEFAEFFB80031208477F040205A1
:104BB3006574F712035474E11208D9EA2413F582D9
:104BC300EB12689DC0E07411120A9BD0E0125003EF
:104BD3007409120A9B124FFC124C18FCE9FD8C82DB
:104BE3008D83124C2E740B120A9B124FFC2414F566
:104BF30082EB12689DC0E07412120A9BD0E0F0EAC7
:104C0300240EF582EB122ADE8C828D83124C321233
:104C13000D93024A882404124C1E22F8EB3400F947
:104C2300E822EA240BF582EB12747812500A22125E
:104C33004F23851882851983AA82AB832274EA12D3
:104C4300035474FC1208D9EAFEEBFF750B00750AD6
:104C5300007508FE7509FF120E71E96005791102EE
:104C63004EFFEE240F1232DAEE24021229A5EE24AF
:104C730015124F176046901AADE0C43354E0C0E0FC
:104C8300E0333354FCFAD0E04A8510828511831255
:104C93003D11FAA3E0FB79FF121D1DEA7001EB60E1
:104CA30018750B017508FF850E82850F83E0440498
:104CB300F0A3E0124F4ED2E0F0750A40EE2412F555
:104CC30014EF3400F515850C82850D8312607C602A
:104CD30008E4851482851583F0EE2413124F1770B0
:104CE30003741EF0EE2411F8EF1260607019901235
:104CF30003E0600D90036CE0700D8E828F83E07093
:104D030006E488828983F0EE2414080808124F0D04
:104D1300700C900361124F29900361E004F0EE24BC
:104D23000BF512EF3400F51390036FE0A2E150523C
:104D3300E50B701D850C82850D8312607C60438EAC
:104D4300828F83E0600B851282851383122766604E
:104D530031850E82850F83E054406019851082856A
:104D63001183E06401700E850E82850F83E054FB8E
:104D730012609D800DEEFAEFFB120ED7E97003026D
:104D83004C608E828F83E0640170108512828513DC
:104D9300831262C364027003126094850E82850FCE
:104DA30083E054406003024E6BE50B6003024E6BDD
:104DB30090036FE0A2E14003024E6BEE2406F51070
:104DC300EF3400F511E50AF50B780B12081DAC1052
:104DD300AD11850C82850D83125181851482851551
:104DE30083E0F9120DBD7401120847E9600FE485F1
:104DF3001482851583124F45442012609D851082CD
:104E0300851183E06034850C82850D83124F1FEE7C
:104E13002407FAEF3400FB120EFB8A088B09850C7A
:104E230082850D83E065087004A3E065097008E4DA
:104E3300851082851183F0126094EE2404F510EF3F
:104E43003400F5118E828F83E064016006124F30C7
:104E5300120D57124F30120CF1E9600C850E82854A
:104E63000F83E0442012609D851882851983AC82EC
:104E7300AD83EEFAEFFB120EEF8A0A8B0B74FE651D
:104E830008700474FF65097009850C82850D83120F
:104E93003CCEEA7001EB60608E828F83E0C0E074E9
:104EA30001120A9BD0E0F07402120A9B126EE674A0
:104EB30001120A9B85820C85830D780C12081985D3
:104EC3000E82850F8312069BEE240E12689AF50C50
:104ED300780C12081D7405120A9BE0F9AC08AD09A1
:104EE300120EE97405120847E9FE74106E700BAADE
:104EF3000AAB0B1214E980027E10EEF97404120857
:104F0300477F0E020565EE2405F8EF124F122212B9
:104F13004A97E0221256A9E022127475124F2322F7
:104F2300E0FCA3E0FD22E088828983F022A90A85C0
:104F33001082851183124F23850C82850D83124ABB
:104F4300D522F0850E82850F83E022F085108285BD
:104F53001183E022C082C08374DE1208D98A828B57
:104F630083A3A3A3A3124C2E740E120A9BE8F0A3EF
:104F7300E9125003740C120A9B124FFC240DF582A4
:104F8300EB12689DC0E0741A120A9BD0E0F0124C39
:104F9300257420120A9B124FFC2415F582EB12682C
:104FA3009DC0E07408120A9BD0E0F0EA241C124C66
:104FB300287412120A9B12589274FF85188285195D
:104FC30083F07401120A9B74FFF07402120A9B743B
:104FD300FFF09087501206977404120A9BAC82ADBF
:104FE300837407120A9BAA82AB83120C55740412B2
:104FF300084779007422024B40E8F0A3E9F0EA2263
:1050030012501412500A2212500E22E0F8A3E0F9B3
:105013002212501AA3A322F08001FB8A828B8322DF
:1050230074EC12035474F01208D98A128B13ECFE39
:10503300EDFF890F7424120A9BE0F50C7425120A04
:105043009B123CCE7427120A9B126B19750D107AB2
:105053001E7B001214E37402120A9B1260C87402CE
:10506300120A9BE07002A3E07003025171750E00F7
:10507300EEFAEFFB120B4D8A828B83E5827002E519
:1050830083601CA3A3A3A3E0FA74016A60057403FD
:105093006A700CE5085440700674044509F50974F8
:1050A300045509F9E47001E96003750E018518825E
:1050B300851983AA82AB8379501251787402120A3C
:1050C3009B12466DA31260C87402120A9BE0240B64
:1050D3001251857402F0120A9B12466D7402F0128B
:1050E3000A9B125B87126EE67402120A9B1262B865
:1050F300E50FF07402120A9BE0240C125185E50CB3
:10510300F07402120A9BE0241C125185E512F0A3ED
:10511300E513F07408120A9B125E58740A120A9B74
:10512300E50CF0850A82850B83C082C083740D125F
:105133000A9BAC82AD83D083D0827403120793A9F8
:105143000E7402120A9BAA82AB83120E77E96401E2
:105153007011E50E6008A90C120EA1120EC5750D93
:1051630000800B7402120A9B1251811214E9A90DDB
:105173007410026B21121C1B851882851983124A35
:10518300D5221251892212518D22F8A3E0024A97A7
:1051930074E8120354EAFEEBFF8C088D098E828FAC
:1051A30083A38582128583137408F0EE2416F50C0D
:1051B300EF12745AE060097410851282851383F02C
:1051C300EE24171232DA850E82F583E0600A851227
:1051D30082851383E02408F0EE241512689A60098F
:1051E300851282851383E004F0EE2407F514EF346F
:1051F30000F515EE2406F516EF3400F51785168233
:10520300F583E06015851482851583E0C33324029A
:10521300FA851282851383E02AF0EE2411124F0CD3
:105223006005750A0E8003750A0085128285138353
:10523300E0C0E0EE240D127453D0E0FAE02A250A10
:105243008C828D831253C5601390036DE0F9120AAB
:10525300B1E9FA850882850983E02AF08508828509
:105263000983E0FAC39475400975080075090002C3
:10527300539F7B00126E487001EB700302539FEE45
:10528300FAEFFB120EF5EA8508828509831260C9DD
:10529300EE2402F8125F171253CCF0EE2404080830
:1052A300125F17A3A31253CCA3A3F0EE241312533C
:1052B300B1F0EE24141253B1A3F0751008850C82DB
:1052C300850D83E06010EE2418124F1CE5082408B6
:1052D300126B0F751010850E82850F83E06016EE3A
:1052E300241A124F1C85100CE508250C126B0F7441
:1052F300082510F510851682851783E0605F8514F5
:1053030082851583E0C0E085100CE508250CF58245
:10531300E509127456D0E01253BBE0C0E085100CCF
:10532300E508250CF582E509127456D0E01253BB4B
:1053330012330D120815851482851583E0C333FCDF
:10534300E433FD85100CE508250C1242A41208472E
:10535300851482851583E0C3332510F510EE2415DB
:1053630012689A6010C0E0E5082510F582E509127D
:105373007456D0E0F012745012330E120815EE2456
:105383000D12689AFC7D008512828513831258FCE6
:10539300E50A28FAE4391253AD120847AA08AB0903
:1053A3007F100205657D00EEFAEFFB0242AA12743C
:1053B300751253DCA3A3A322F005108E828F830200
:1053C30078D2F088828983E0221253D31253DC22ED
:1053D300A3A3F088828983A322E0850882850983B9
:1053E300A3A3A32274F6120354EA2415F582EB1245
:1053F300689D60047C0180027C008A828B83E0FECE
:10540300900372125488740278081209DAE5084E80
:10541300FEAF09EA2412125482740678081209DADC
:10542300E5084EF8E5094FF9ECFDE8FCED49FDEA26
:105433002411125482740978081209DAE5094DFD22
:10544300EA2416125482740B78081209DAE5094D1E
:10545300FDEA2417125482740C78081209DAE5095C
:105463004DFD8A828B83A3A3A3A3A3A312548874A1
:105473000A78081209DAECFAE5094DFB025B90F5AC
:1054830082EB127478E0F5087509002274F41203B4
:105493005474FD1208D98A088B09ECFEEDFF7401E0
:1054A300120A9B85820A85830B780A1208197402F3
:1054B300120A9BAC82AD83EEFAEFFB120D3374023A
:1054C300120847E97065851882851983125F1BF0FE
:1054D3007401120A9BE0F8A312553FA3A31258923A
:1054E300850882850983A3A882A9838518828519E3
:1054F30083E0602C1488828983125537E0C333F824
:10550300E433F97401120A9BE028F8A3E039F97433
:10551300FE28F58274FF39F583E0FAA3E0FB800FE0
:10552300E488828983F0EEFAEF80F27AFE7BFF74DF
:1055330003024BACF085188285198322E0F9025FE0
:105543001C74EE1203548A088B09ECFEEDFFE98EFE
:10555300828F83F0125908C0E0EE2411127453D0E5
:10556300E01258AEC0E0EE2412127453D0E0125889
:10557300D260061258811258EE8E828F83A3A3A3A2
:10558300A3A3A3A3A3E060031258E2124F0960038D
:105593001258B6EE2419F8EF3400F9E488828983AF
:1055A300F0EE241B1256A9E4F0A3F0EE2418FAEF50
:1055B3001256B67003025642850A82850B83E0FCBD
:1055C300E5082C1258C1FCE5082CF582E5091268A0
:1055D3009DC0E0EE241A127453D0E01258CC888296
:1055E3008983E0FC6053902208E493C39C500575C3
:1055F3000F0C80028C0F850A82850B83E0F8E50887
:1056030028F50CE5091256BA120815E50FC333FC49
:10561300E433FD7A2B7B191242AA120847851082C4
:10562300851183742BF0A37419F0E50FC333FA8546
:105633000A82850B83E02A8005E48A828B83F085C6
:105643000A82850B83E0F50AF50CE508250CF8E5DD
:10565300093400F9EE241DFAEF3400FBEAFCEBFDFC
:105663008C828D831256BF2417FAEF3400FB8A080D
:105673008B098E828F83E0C3950A8A828B831256AD
:10568300C6A3A3E0601B8A828B83E024F2F0E824A4
:105693000EF8E9125898FA850882850983E0C39ABF
:1056A300F07F0A020565F510EF3400F511851082CD
:1056B300F58322126C39223400023313E8F0A3E994
:1056C300F0EE221256CA22F08E828F830278D674AD
:1056D300F41203548A088B09EA125766F0EA13138B
:1056E300543F12575FA3A3A3F0EAC41313125766E0
:1056F300A3A3F0EB12574CF08A0A8B0B7409780AB8
:10570300120A3EE50A12574CA3F08A0A8B0B740A5D
:10571300780A120A3EE50A5401C0E0EC2418F58227
:10572300ED127456D0E0F08A0A8B0B740B780A12D0
:105733000A3EE50A125759F0740C7808120A3EE53E
:1057430008125759A3F0024BAF1257502254018C41
:10575300828D830278D5125750A3A322540F8C82D3
:105763008D832254038C828D83A3A322C082C083A2
:10577300790090036C125F00A3A3A3A3E0600FEC76
:1057830070268A828B83A3A3E0701D09801AEC60C4
:10579300178A828B83A3A3A3A3A3A3A3A3A31257B1
:1057A300AE7003A3E06B70E3024B43124AD5900340
:1057B30075E06A2274EE1203548A088B09890CEC93
:1057C300FEEDFF125908C0E0EE2411127453D0E02D
:1057D3001258AEC0E0EE2412127453D0E01258D225
:1057E30060061258811258EE8E828F83A3A3A3A35F
:1057F300A3A3A3A3E060031258E2124F09600312AC
:1058030058B6EEFAEFFB120F0DE9F50D706B850A32
:1058130082850B83E0F50EF510E5082510FAE509FE
:105823003400FBEE2417F8EF3400F988088909EEF9
:10583300241DF8EF124C20FCE9FD8E828F83A3A375
:10584300A3A3A3A3E07012EAF8EBF98C828D831271
:105853005892E50CC3950E8019EA240EF8EB125802
:1058630098FB850A82850B83E0FAE50CC39A24F240
:10587300C39B850882850983F0A90D0256A4E50818
:105883002408F8E5093400F9EE241322126231E802
:10589300F0A3E9F0223400F98C828D83E8F0A3E9C8
:1058A300F090036DE0F9120AB1E922126052A3A34A
:1058B300A3E022850A82850B83E0FAE5082AF582B4
:1058C300E5091268A48882898312332B04F022121B
:1058D30042B985820A85830B74081256CA80CF8524
:1058E3000A82850B831258FCEE2415127475E8F0B6
:1058F300A3E912332B2408F022E0F8E50828F8E5A1
:10590300093400F9228A828B83124AD5120F078544
:105913000882850983A3A3125947E0F9EA8E828F8F
:1059230083A3A3A3A3A3A3A3A3A312594C125947CD
:10593300A3A3E0F9EAF8EE240B127475E812594CAC
:10594300A3A3E022E0FA0253DDF0A3E9126056229A
:10595300C082C0837AF37B0379E2121C1B7AF37B48
:1059630003024B43C082C083900375125181024BE3
:1059730043C082C08374FE1208D9851882851983B7
:10598300AA82AB83794B125178024B3EC082C0830B
:10599300794A121C1B024B4374F61203549003FB07
:1059A300E0FE04F0EEF9120EA1EA7001EB70EEEEE8
:1059B30060EBF9025B9074EC120354EAFEEBFF8C8C
:1059C300128D13890E7414120A9BE0F50A741512D2
:1059D3000A9BE0F50B750C00750D0012107B8A080D
:1059E3008B09EA7001EB7017E50B6003025AB4A947
:1059F3000EAC12AD13EEFAEFFB12109F025B6DEAD1
:105A03002402F8EB3400F9E50E601688828983E0FE
:105A1300FAE50E2AFAE4340013EA13F07003740172
:105A2300F0E50B6078900408E07002A3E060099051
:105A33000408125B87121DD9E50A70178508828551
:105A43000983E07003025ACD14F06402707C750D73
:105A530001807790036FE0A2E1507790040AE07031
:105A630002A3E0600FA90AAA08AB0990040A125B1B
:105A730087121DD9850882850983E0C394045003E6
:105A8300E004F0E06403700A750C01EEFAEFFB1218
:105A93000DCFE4850882850983A3F0802D901AB287
:105AA300E0C0E088828983E0FAD0E0C39A501B808B
:105AB3009D7401650B7013E50E600F90036FE0A2F8
:105AC300E15015EEFAEFFB120DCF90036FE0A2E168
:105AD30040257401650B701FE50A601690040CE005
:105AE30004F0C0E0901A95E0FAD0E0C39A4008753C
:105AF3000C01E490040CF0E50D7004E50C606B9070
:105B0300036FE0A2E15030EEFAEFFB120B4D8A086F
:105B13008B09A808A909E87001E9601BE82405F5C9
